{
  "_format": "hh-sol-artifact-1",
  "contractName": "Fixed192x64Math",
  "sourceName": "@gnosis.pm/util-contracts/contracts/Fixed192x64Math.sol",
  "abi": [
    {
      "constant": true,
      "inputs": [],
      "name": "LN2",
      "outputs": [
        {
          "internalType": "uint256",
          "name": "",
          "type": "uint256"
        }
      ],
      "payable": false,
      "stateMutability": "view",
      "type": "function"
    },
    {
      "constant": true,
      "inputs": [],
      "name": "LOG2_E",
      "outputs": [
        {
          "internalType": "uint256",
          "name": "",
          "type": "uint256"
        }
      ],
      "payable": false,
      "stateMutability": "view",
      "type": "function"
    },
    {
      "constant": true,
      "inputs": [],
      "name": "ONE",
      "outputs": [
        {
          "internalType": "uint256",
          "name": "",
          "type": "uint256"
        }
      ],
      "payable": false,
      "stateMutability": "view",
      "type": "function"
    },
    {
      "constant": true,
      "inputs": [
        {
          "internalType": "uint256",
          "name": "x",
          "type": "uint256"
        },
        {
          "internalType": "enum Fixed192x64Math.EstimationMode",
          "name": "estimationMode",
          "type": "Fixed192x64Math.EstimationMode"
        }
      ],
      "name": "binaryLog",
      "outputs": [
        {
          "internalType": "int256",
          "name": "",
          "type": "int256"
        }
      ],
      "payable": false,
      "stateMutability": "pure",
      "type": "function"
    },
    {
      "constant": true,
      "inputs": [
        {
          "internalType": "int256",
          "name": "x",
          "type": "int256"
        }
      ],
      "name": "exp",
      "outputs": [
        {
          "internalType": "uint256",
          "name": "",
          "type": "uint256"
        }
      ],
      "payable": false,
      "stateMutability": "pure",
      "type": "function"
    },
    {
      "constant": true,
      "inputs": [
        {
          "internalType": "uint256",
          "name": "x",
          "type": "uint256"
        }
      ],
      "name": "floorLog2",
      "outputs": [
        {
          "internalType": "int256",
          "name": "lo",
          "type": "int256"
        }
      ],
      "payable": false,
      "stateMutability": "pure",
      "type": "function"
    },
    {
      "constant": true,
      "inputs": [
        {
          "internalType": "uint256",
          "name": "x",
          "type": "uint256"
        }
      ],
      "name": "ln",
      "outputs": [
        {
          "internalType": "int256",
          "name": "",
          "type": "int256"
        }
      ],
      "payable": false,
      "stateMutability": "pure",
      "type": "function"
    },
    {
      "constant": true,
      "inputs": [
        {
          "internalType": "uint256",
          "name": "x",
          "type": "uint256"
        }
      ],
      "name": "log2Bounds",
      "outputs": [
        {
          "internalType": "int256",
          "name": "lower",
          "type": "int256"
        },
        {
          "internalType": "int256",
          "name": "upper",
          "type": "int256"
        }
      ],
      "payable": false,
      "stateMutability": "pure",
      "type": "function"
    },
    {
      "constant": true,
      "inputs": [
        {
          "internalType": "int256[]",
          "name": "nums",
          "type": "int256[]"
        }
      ],
      "name": "max",
      "outputs": [
        {
          "internalType": "int256",
          "name": "maxNum",
          "type": "int256"
        }
      ],
      "payable": false,
      "stateMutability": "pure",
      "type": "function"
    },
    {
      "constant": true,
      "inputs": [
        {
          "internalType": "int256",
          "name": "x",
          "type": "int256"
        },
        {
          "internalType": "enum Fixed192x64Math.EstimationMode",
          "name": "estimationMode",
          "type": "Fixed192x64Math.EstimationMode"
        }
      ],
      "name": "pow2",
      "outputs": [
        {
          "internalType": "uint256",
          "name": "",
          "type": "uint256"
        }
      ],
      "payable": false,
      "stateMutability": "pure",
      "type": "function"
    },
    {
      "constant": true,
      "inputs": [
        {
          "internalType": "int256",
          "name": "x",
          "type": "int256"
        }
      ],
      "name": "pow2Bounds",
      "outputs": [
        {
          "internalType": "uint256",
          "name": "lower",
          "type": "uint256"
        },
        {
          "internalType": "uint256",
          "name": "upper",
          "type": "uint256"
        }
      ],
      "payable": false,
      "stateMutability": "pure",
      "type": "function"
    }
  ],
  "bytecode": "0x610ad8610026600b82828239805160001a60731461001957fe5b30600052607381538281f3fe73000000000000000000000000000000000000000030146080604052600436106100d35760003560e01c806324d4e90a1161008b578063c2ee3a0811610065578063c2ee3a08146101d3578063ccc13814146101db578063e46751e31461027e576100d3565b806324d4e90a1461017c57806345b8bafc14610199578063c1266227146101b6576100d3565b80631427f168116100bc5780631427f168146101185780631d5801231461014e57806324902e2414610174576100d3565b806302780677146100d8578063137bf798146100f2575b600080fd5b6100e061029b565b60408051918252519081900360200190f35b6100e06004803603604081101561010857600080fd5b508035906020013560ff166102a7565b6101356004803603602081101561012e57600080fd5b5035610318565b6040805192835260208301919091528051918290030190f35b6100e06004803603604081101561016457600080fd5b508035906020013560ff166103df565b6100e061044e565b6100e06004803603602081101561019257600080fd5b503561045b565b6100e0600480360360208110156101af57600080fd5b50356104a3565b610135600480360360208110156101cc57600080fd5b503561053a565b6100e0610996565b6100e0600480360360208110156101f157600080fd5b81019060208101813564010000000081111561020c57600080fd5b82018360208201111561021e57600080fd5b8035906020019184602083028401116401000000008311171561024057600080fd5b9190808060200260200160405190810160405280939291908181526020018383602002808284376000920191909152509295506109a3945050505050565b6100e06004803603602081101561029457600080fd5b5035610a20565b67b17217f7d1cf79ac81565b60008060006102b585610318565b909250905060008460028111156102c857fe5b14156102d657509050610312565b60018460028111156102e457fe5b14156102f35791506103129050565b600284600281111561030157fe5b14156100d357600290829003050190505b92915050565b6000806000831161032857600080fd5b610331836104a3565b915060008083121561034b578260000384901b9050610350565b5082821c5b68010000000000000000929092029160015b604081136103d25768010000000000000000821415610380576103d2565b680100000000000000008280020491506802000000000000000082106103ca57806801000000000000000060008212156103b657fe5b901c84019350600282816103c657fe5b0491505b600101610362565b505050600481015b915091565b60008060006103ed8561053a565b9092509050600084600281111561040057fe5b141561040e57509050610312565b600184600281111561041c57fe5b141561042b5791506103129050565b600284600281111561043957fe5b14156100d35760029082900304019050610312565b680171547652b82fe17781565b600080600061046984610318565b91509150680171547652b82fe177680100000000000000008360028585038161048e57fe5b0501028161049857fe5b05925050505b919050565b7fffffffffffffffffffffffffffffffffffffffffffffffffffffffffffffffc060c1608160011d5b81836001011215610533576000811280156104f55750680100000000000000008160000385901b105b8061051657506000811215801561051657506801000000000000000084821c105b1561052357809150610527565b8092505b5080820160011d6104cc565b5050919050565b60008068bfffffffffffffffff83131561055357600080fd5b7fffffffffffffffffffffffffffffffffffffffffffffffc0000000000000000083121561058757506000905060016103da565b600080600085126105a9575050680100000000000000008084059084076105cc565b600168010000000000000000868201050391505068010000000000000000810284035b60008112156105d757fe5b679d955b7dd273b94e6801000000000000000082800281900580840282900580850283900593840260061d67f5fdeffc162c754390920260021d67b17217f7d1cf79ab86020167e35846b82505fc599190910260041d010170010000000000000000000000000000000001919081840205905060098167aec3ff3c5339888302901d82019150680100000000000000008382028161067157fe5b059050600c8167a184897c363c3b7a02901d82019150680100000000000000008382028161069b57fe5b05905060108167ffe5fe2c4586343502901d8201915068010000000000000000838202816106c557fe5b05905060138167b160111d2e411fec02901d8201915068010000000000000000838202816106ef57fe5b05905060178167da929e9caf3e1ed202901d82019150680100000000000000008382028161071957fe5b059050601b8167f267a8ac5c764fb702901d82019150680100000000000000008382028161074357fe5b059050601f8167f465639a8dd9260702901d82019150680100000000000000008382028161076d57fe5b05905060238167e1deb287e14c2f1502901d82019150680100000000000000008382028161079757fe5b05905060278167c0b0c98b3687cb1402901d8201915068010000000000000000838202816107c157fe5b059050602b816798a4b26ac3c54b9f02901d8201915068010000000000000000838202816107eb57fe5b05905060308167e1b7421d82010f3302901d82019150680100000000000000008382028161081557fe5b059050603481679c744d73cfc59c9102901d82019150680100000000000000008382028161083f57fe5b05905060398167cc2225a0e12d3eab02901d82019150680100000000000000008382028161086957fe5b7fffffffffffffffffffffffffffffffffffffffffffffffffffffffffffffffc095909501940567fb8bb5eda1b4aeb902603e1d919091019050680800000000000000006000841261095f5783610100038260008212156108c657fe5b901d61092f57838260008212156108d957fe5b901b9550838160008212156108ea57fe5b901b90508581870110610901578086019450610925565b7fffffffffffffffffffffffffffffffffffffffffffffffffffffffffffffffff94505b506103da92505050565b507fffffffffffffffffffffffffffffffffffffffffffffffffffffffffffffffff94508493506103da92505050565b8360000381600082121561096f57fe5b901d60010190508360000382600082121561098657fe5b901c955085019350505050915091565b6801000000000000000081565b6000808251116109b257600080fd5b507f800000000000000000000000000000000000000000000000000000000000000060005b8251811015610a1a57818382815181106109ed57fe5b60200260200101511315610a1257828181518110610a0757fe5b602002602001015191505b6001016109d7565b50919050565b600068851591f9dd5b9b40d7821315610a3857600080fd5b7fffffffffffffffffffffffffffffffffffffffffffffffd3a37a020b8c21950d8213610a675750600061049e565b600080610a8867b17217f7d1cf79ac6801000000000000000086020561053a565b9150915081600283830381610a9957fe5b040194935050505056fea265627a7a72315820f1da588f96a7d8eb577154b609f7928859084f115cd783f0e39ff40a18fda29064736f6c63430005100032",
  "linkReferences": {},
  "deployedLinkReferences": {}
}