{
  "_format": "hh-sol-artifact-1",
  "contractName": "LMSRMarketMaker",
  "sourceName": "@gnosis.pm/conditional-tokens-market-makers/contracts/LMSRMarketMaker.sol",
  "abi": [
    {
      "anonymous": false,
      "inputs": [],
      "name": "AMMClosed",
      "type": "event"
    },
    {
      "anonymous": false,
      "inputs": [
        {
          "indexed": false,
          "internalType": "uint256",
          "name": "initialFunding",
          "type": "uint256"
        }
      ],
      "name": "AMMCreated",
      "type": "event"
    },
    {
      "anonymous": false,
      "inputs": [
        {
          "indexed": false,
          "internalType": "uint64",
          "name": "newFee",
          "type": "uint64"
        }
      ],
      "name": "AMMFeeChanged",
      "type": "event"
    },
    {
      "anonymous": false,
      "inputs": [
        {
          "indexed": false,
          "internalType": "uint256",
          "name": "fees",
          "type": "uint256"
        }
      ],
      "name": "AMMFeeWithdrawal",
      "type": "event"
    },
    {
      "anonymous": false,
      "inputs": [
        {
          "indexed": false,
          "internalType": "int256",
          "name": "fundingChange",
          "type": "int256"
        }
      ],
      "name": "AMMFundingChanged",
      "type": "event"
    },
    {
      "anonymous": false,
      "inputs": [
        {
          "indexed": true,
          "internalType": "address",
          "name": "transactor",
          "type": "address"
        },
        {
          "indexed": false,
          "internalType": "int256[]",
          "name": "outcomeTokenAmounts",
          "type": "int256[]"
        },
        {
          "indexed": false,
          "internalType": "int256",
          "name": "outcomeTokenNetCost",
          "type": "int256"
        },
        {
          "indexed": false,
          "internalType": "uint256",
          "name": "marketFees",
          "type": "uint256"
        }
      ],
      "name": "AMMOutcomeTokenTrade",
      "type": "event"
    },
    {
      "anonymous": false,
      "inputs": [],
      "name": "AMMPaused",
      "type": "event"
    },
    {
      "anonymous": false,
      "inputs": [],
      "name": "AMMResumed",
      "type": "event"
    },
    {
      "anonymous": false,
      "inputs": [
        {
          "indexed": true,
          "internalType": "address",
          "name": "previousOwner",
          "type": "address"
        },
        {
          "indexed": true,
          "internalType": "address",
          "name": "newOwner",
          "type": "address"
        }
      ],
      "name": "OwnershipTransferred",
      "type": "event"
    },
    {
      "constant": true,
      "inputs": [],
      "name": "FEE_RANGE",
      "outputs": [
        {
          "internalType": "uint64",
          "name": "",
          "type": "uint64"
        }
      ],
      "payable": false,
      "stateMutability": "view",
      "type": "function"
    },
    {
      "constant": true,
      "inputs": [],
      "name": "atomicOutcomeSlotCount",
      "outputs": [
        {
          "internalType": "uint256",
          "name": "",
          "type": "uint256"
        }
      ],
      "payable": false,
      "stateMutability": "view",
      "type": "function"
    },
    {
      "constant": true,
      "inputs": [
        {
          "internalType": "uint8",
          "name": "outcomeTokenIndex",
          "type": "uint8"
        }
      ],
      "name": "calcMarginalPrice",
      "outputs": [
        {
          "internalType": "uint256",
          "name": "price",
          "type": "uint256"
        }
      ],
      "payable": false,
      "stateMutability": "view",
      "type": "function"
    },
    {
      "constant": true,
      "inputs": [
        {
          "internalType": "uint256",
          "name": "outcomeTokenCost",
          "type": "uint256"
        }
      ],
      "name": "calcMarketFee",
      "outputs": [
        {
          "internalType": "uint256",
          "name": "",
          "type": "uint256"
        }
      ],
      "payable": false,
      "stateMutability": "view",
      "type": "function"
    },
    {
      "constant": true,
      "inputs": [
        {
          "internalType": "int256[]",
          "name": "outcomeTokenAmounts",
          "type": "int256[]"
        }
      ],
      "name": "calcNetCost",
      "outputs": [
        {
          "internalType": "int256",
          "name": "netCost",
          "type": "int256"
        }
      ],
      "payable": false,
      "stateMutability": "view",
      "type": "function"
    },
    {
      "constant": false,
      "inputs": [
        {
          "internalType": "uint64",
          "name": "_fee",
          "type": "uint64"
        }
      ],
      "name": "changeFee",
      "outputs": [],
      "payable": false,
      "stateMutability": "nonpayable",
      "type": "function"
    },
    {
      "constant": false,
      "inputs": [
        {
          "internalType": "int256",
          "name": "fundingChange",
          "type": "int256"
        }
      ],
      "name": "changeFunding",
      "outputs": [],
      "payable": false,
      "stateMutability": "nonpayable",
      "type": "function"
    },
    {
      "constant": false,
      "inputs": [],
      "name": "close",
      "outputs": [],
      "payable": false,
      "stateMutability": "nonpayable",
      "type": "function"
    },
    {
      "constant": true,
      "inputs": [],
      "name": "collateralToken",
      "outputs": [
        {
          "internalType": "contract IERC20",
          "name": "",
          "type": "address"
        }
      ],
      "payable": false,
      "stateMutability": "view",
      "type": "function"
    },
    {
      "constant": true,
      "inputs": [
        {
          "internalType": "uint256",
          "name": "",
          "type": "uint256"
        }
      ],
      "name": "conditionIds",
      "outputs": [
        {
          "internalType": "bytes32",
          "name": "",
          "type": "bytes32"
        }
      ],
      "payable": false,
      "stateMutability": "view",
      "type": "function"
    },
    {
      "constant": true,
      "inputs": [],
      "name": "fee",
      "outputs": [
        {
          "internalType": "uint64",
          "name": "",
          "type": "uint64"
        }
      ],
      "payable": false,
      "stateMutability": "view",
      "type": "function"
    },
    {
      "constant": true,
      "inputs": [],
      "name": "funding",
      "outputs": [
        {
          "internalType": "uint256",
          "name": "",
          "type": "uint256"
        }
      ],
      "payable": false,
      "stateMutability": "view",
      "type": "function"
    },
    {
      "constant": true,
      "inputs": [],
      "name": "isOwner",
      "outputs": [
        {
          "internalType": "bool",
          "name": "",
          "type": "bool"
        }
      ],
      "payable": false,
      "stateMutability": "view",
      "type": "function"
    },
    {
      "constant": false,
      "inputs": [
        {
          "internalType": "address",
          "name": "_operator",
          "type": "address"
        },
        {
          "internalType": "address",
          "name": "",
          "type": "address"
        },
        {
          "internalType": "uint256[]",
          "name": "",
          "type": "uint256[]"
        },
        {
          "internalType": "uint256[]",
          "name": "",
          "type": "uint256[]"
        },
        {
          "internalType": "bytes",
          "name": "",
          "type": "bytes"
        }
      ],
      "name": "onERC1155BatchReceived",
      "outputs": [
        {
          "internalType": "bytes4",
          "name": "",
          "type": "bytes4"
        }
      ],
      "payable": false,
      "stateMutability": "nonpayable",
      "type": "function"
    },
    {
      "constant": false,
      "inputs": [
        {
          "internalType": "address",
          "name": "operator",
          "type": "address"
        },
        {
          "internalType": "address",
          "name": "",
          "type": "address"
        },
        {
          "internalType": "uint256",
          "name": "",
          "type": "uint256"
        },
        {
          "internalType": "uint256",
          "name": "",
          "type": "uint256"
        },
        {
          "internalType": "bytes",
          "name": "",
          "type": "bytes"
        }
      ],
      "name": "onERC1155Received",
      "outputs": [
        {
          "internalType": "bytes4",
          "name": "",
          "type": "bytes4"
        }
      ],
      "payable": false,
      "stateMutability": "nonpayable",
      "type": "function"
    },
    {
      "constant": true,
      "inputs": [],
      "name": "owner",
      "outputs": [
        {
          "internalType": "address",
          "name": "",
          "type": "address"
        }
      ],
      "payable": false,
      "stateMutability": "view",
      "type": "function"
    },
    {
      "constant": false,
      "inputs": [],
      "name": "pause",
      "outputs": [],
      "payable": false,
      "stateMutability": "nonpayable",
      "type": "function"
    },
    {
      "constant": true,
      "inputs": [],
      "name": "pmSystem",
      "outputs": [
        {
          "internalType": "contract ConditionalTokens",
          "name": "",
          "type": "address"
        }
      ],
      "payable": false,
      "stateMutability": "view",
      "type": "function"
    },
    {
      "constant": false,
      "inputs": [],
      "name": "renounceOwnership",
      "outputs": [],
      "payable": false,
      "stateMutability": "nonpayable",
      "type": "function"
    },
    {
      "constant": false,
      "inputs": [],
      "name": "resume",
      "outputs": [],
      "payable": false,
      "stateMutability": "nonpayable",
      "type": "function"
    },
    {
      "constant": true,
      "inputs": [],
      "name": "stage",
      "outputs": [
        {
          "internalType": "enum MarketMaker.Stage",
          "name": "",
          "type": "uint8"
        }
      ],
      "payable": false,
      "stateMutability": "view",
      "type": "function"
    },
    {
      "constant": true,
      "inputs": [
        {
          "internalType": "bytes4",
          "name": "interfaceId",
          "type": "bytes4"
        }
      ],
      "name": "supportsInterface",
      "outputs": [
        {
          "internalType": "bool",
          "name": "",
          "type": "bool"
        }
      ],
      "payable": false,
      "stateMutability": "view",
      "type": "function"
    },
    {
      "constant": false,
      "inputs": [
        {
          "internalType": "int256[]",
          "name": "outcomeTokenAmounts",
          "type": "int256[]"
        },
        {
          "internalType": "int256",
          "name": "collateralLimit",
          "type": "int256"
        }
      ],
      "name": "trade",
      "outputs": [
        {
          "internalType": "int256",
          "name": "netCost",
          "type": "int256"
        }
      ],
      "payable": false,
      "stateMutability": "nonpayable",
      "type": "function"
    },
    {
      "constant": false,
      "inputs": [
        {
          "internalType": "address",
          "name": "newOwner",
          "type": "address"
        }
      ],
      "name": "transferOwnership",
      "outputs": [],
      "payable": false,
      "stateMutability": "nonpayable",
      "type": "function"
    },
    {
      "constant": true,
      "inputs": [],
      "name": "whitelist",
      "outputs": [
        {
          "internalType": "contract Whitelist",
          "name": "",
          "type": "address"
        }
      ],
      "payable": false,
      "stateMutability": "view",
      "type": "function"
    },
    {
      "constant": false,
      "inputs": [],
      "name": "withdrawFees",
      "outputs": [
        {
          "internalType": "uint256",
          "name": "fees",
          "type": "uint256"
        }
      ],
      "payable": false,
      "stateMutability": "nonpayable",
      "type": "function"
    }
  ],
  "bytecode": "0x60806040526000620000196001600160e01b036200009f16565b600080546001600160a01b0319166001600160a01b0383169081178255604051929350917f8be0079c531659141344cd1fd0a4f28419497f9722a3daafe3b4186f6b6457e0908290a3506200007e6301ffc9a760e01b6001600160e01b03620000a316565b62000099630271189760e51b6001600160e01b03620000a316565b6200012b565b3390565b6001600160e01b0319808216141562000103576040805162461bcd60e51b815260206004820152601c60248201527f4552433136353a20696e76616c696420696e7465726661636520696400000000604482015290519081900360640190fd5b6001600160e01b0319166000908152600160208190526040909120805460ff19169091179055565b612a6a806200013b6000396000f3fe608060405234801561001057600080fd5b50600436106101ae5760003560e01c8063b0011509116100ee578063d8c55af711610097578063e7f3378911610071578063e7f3378914610608578063f23a6e611461062f578063f2fde38b146106c4578063fbde47f6146106ea576101ae565b8063d8c55af7146105be578063dd83bad2146105db578063ddca3f43146105e3576101ae565b8063bc197c81116100c8578063bc197c8114610428578063c040e6b81461058a578063cb4c86b7146105b6576101ae565b8063b0011509146103e3578063b2016bd414610400578063b20f8e7f14610408576101ae565b8063715018a61161015b57806387f39a5c1161013557806387f39a5c146103ae5780638da5cb5b146103cb5780638f32d59b146103d357806393e59dc1146103db576101ae565b8063715018a6146102fb578063782d085b146103035780638456cb59146103a6576101ae565b806315bd76111161018c57806315bd76111461023457806343d726d6146102eb578063476343ee146102f3576101ae565b806301ffc9a7146101b3578063046f7da21461020657806305be8b2c14610210575b600080fd5b6101f2600480360360208110156101c957600080fd5b50357fffffffff00000000000000000000000000000000000000000000000000000000166106f2565b604080519115158252519081900360200190f35b61020e610729565b005b6102186107f4565b604080516001600160a01b039092168252519081900360200190f35b6102d96004803603604081101561024a57600080fd5b81019060208101813564010000000081111561026557600080fd5b82018360208201111561027757600080fd5b8035906020019184602083028401116401000000008311171561029957600080fd5b9190808060200260200160405190810160405280939291908181526020018383602002808284376000920191909152509295505091359250610803915050565b60408051918252519081900360200190f35b61020e610fd1565b6102d961125a565b61020e61141c565b6102d96004803603602081101561031957600080fd5b81019060208101813564010000000081111561033457600080fd5b82018360208201111561034657600080fd5b8035906020019184602083028401116401000000008311171561036857600080fd5b9190808060200260200160405190810160405280939291908181526020018383602002808284376000920191909152509295506114d7945050505050565b61020e611807565b61020e600480360360208110156103c457600080fd5b50356118d5565b610218611c50565b6101f2611c5f565b610218611c83565b6102d9600480360360208110156103f957600080fd5b5035611c97565b610218611cb7565b6102d96004803603602081101561041e57600080fd5b503560ff16611cc6565b610555600480360360a081101561043e57600080fd5b6001600160a01b03823581169260208101359091169181019060608101604082013564010000000081111561047257600080fd5b82018360208201111561048457600080fd5b803590602001918460208302840111640100000000831117156104a657600080fd5b9193909290916020810190356401000000008111156104c457600080fd5b8201836020820111156104d657600080fd5b803590602001918460208302840111640100000000831117156104f857600080fd5b91939092909160208101903564010000000081111561051657600080fd5b82018360208201111561052857600080fd5b8035906020019184600183028401116401000000008311171561054a57600080fd5b509092509050611eae565b604080517fffffffff000000000000000000000000000000000000000000000000000000009092168252519081900360200190f35b610592611ef8565b604051808260028111156105a257fe5b60ff16815260200191505060405180910390f35b6102d9611f01565b6102d9600480360360208110156105d457600080fd5b5035611f07565b6102d9611f25565b6105eb611f2b565b6040805167ffffffffffffffff9092168252519081900360200190f35b61020e6004803603602081101561061e57600080fd5b503567ffffffffffffffff16611f3b565b610555600480360360a081101561064557600080fd5b6001600160a01b03823581169260208101359091169160408201359160608101359181019060a08101608082013564010000000081111561068557600080fd5b82018360208201111561069757600080fd5b803590602001918460018302840111640100000000831117156106b957600080fd5b509092509050612026565b61020e600480360360208110156106da57600080fd5b50356001600160a01b031661206e565b6105eb6120d3565b7fffffffff000000000000000000000000000000000000000000000000000000001660009081526001602052604090205460ff1690565b610731611c5f565b610782576040805162461bcd60e51b815260206004820181905260248201527f4f776e61626c653a2063616c6c6572206973206e6f7420746865206f776e6572604482015290519081900360640190fd5b60018060085460ff16600281111561079657fe5b146107a057600080fd5b600880547fffffffffffffffffffffffffffffffffffffffffffffffffffffffffffffff001690556040517fb0cf596e1402e50b88a6d1097918e48922e4a2878ece11d7bb51b5d81cf6c17890600090a150565b6002546001600160a01b031681565b6000808060085460ff16600281111561081857fe5b1461082257600080fd5b60085461010090046001600160a01b031615806108cf5750600854604080517f3af32abf00000000000000000000000000000000000000000000000000000000815233600482015290516101009092046001600160a01b031691633af32abf91602480820192602092909190829003018186803b1580156108a257600080fd5b505afa1580156108b6573d6000803e3d6000fd5b505050506040513d60208110156108cc57600080fd5b50515b61090a5760405162461bcd60e51b815260040180806020018281038252602d8152602001806129e6602d913960400191505060405180910390fd5b60055484511461091957600080fd5b6000610924856114d7565b90506000808212156109435761093c82600003611c97565b905061094f565b61094c82611c97565b90505b600081121561095d57600080fd5b61096d828263ffffffff6120df16565b9350841580159061097e5750848413155b80610987575084155b61099057600080fd5b6000821315610af057600354604080517f23b872dd0000000000000000000000000000000000000000000000000000000081523360048201523060248201526044810187905290516001600160a01b03909216916323b872dd916064808201926020929091908290030181600087803b158015610a0c57600080fd5b505af1158015610a20573d6000803e3d6000fd5b505050506040513d6020811015610a3657600080fd5b50518015610ade5750600354600254604080517f095ea7b30000000000000000000000000000000000000000000000000000000081526001600160a01b039283166004820152602481018690529051919092169163095ea7b39160448083019260209291908290030181600087803b158015610ab157600080fd5b505af1158015610ac5573d6000803e3d6000fd5b505050506040513d6020811015610adb57600080fd5b50515b610ae757600080fd5b610af082612114565b60008090506060600554604051908082528060200260200182016040528015610b23578160200160208202803883390190505b50905060005b600554811015610b8b576000898281518110610b4157fe5b60200260200101511215610b835760019250888181518110610b5f57fe5b6020026020010151600003828281518110610b7657fe5b6020026020010181815250505b600101610b29565b508115610cbd576002546040517f2eb2c2d60000000000000000000000000000000000000000000000000000000081523360048201818152306024840181905260a060448501908152600b805460a487018190526001600160a01b0390971696632eb2c2d696939491938993916064820191608481019160c49091019087908015610c3557602002820191906000526020600020905b815481526020019060010190808311610c21575b50508481038352855181528551602091820191808801910280838360005b83811015610c6b578181015183820152602001610c53565b50505050905001848103825260008152602001602001975050505050505050600060405180830381600087803b158015610ca457600080fd5b505af1158015610cb8573d6000803e3d6000fd5b505050505b6000841215610cd257610cd2846000036122db565b336001600160a01b03167fda7ff5556ce7ecfcf06296f03426e8c02a7305b85cfd88816a32f7f4969051778986866040518080602001848152602001838152602001828103825285818151815260200191508051906020019060200280838360005b83811015610d4c578181015183820152602001610d34565b5050505090500194505050505060405180910390a260009150815b600554811015610de5576000898281518110610d7f57fe5b60200260200101511315610dc25760019250888181518110610d9d57fe5b6020026020010151828281518110610db157fe5b602002602001018181525050610ddd565b6000828281518110610dd057fe5b6020026020010181815250505b600101610d67565b508115610f17576002546040517f2eb2c2d60000000000000000000000000000000000000000000000000000000081523060048201818152336024840181905260a060448501908152600b805460a487018190526001600160a01b0390971696632eb2c2d696939491938993916064820191608481019160c49091019087908015610e8f57602002820191906000526020600020905b815481526020019060010190808311610e7b575b50508481038352855181528551602091820191808801910280838360005b83811015610ec5578181015183820152602001610ead565b50505050905001848103825260008152602001602001975050505050505050600060405180830381600087803b158015610efe57600080fd5b505af1158015610f12573d6000803e3d6000fd5b505050505b6000861215610fc657600354604080517fa9059cbb0000000000000000000000000000000000000000000000000000000081523360048201526000898103602483015291516001600160a01b039093169263a9059cbb92604480840193602093929083900390910190829087803b158015610f9157600080fd5b505af1158015610fa5573d6000803e3d6000fd5b505050506040513d6020811015610fbb57600080fd5b5051610fc657600080fd5b505050505092915050565b610fd9611c5f565b61102a576040805162461bcd60e51b815260206004820181905260248201527f4f776e61626c653a2063616c6c6572206973206e6f7420746865206f776e6572604482015290519081900360640190fd5b600060085460ff16600281111561103d57fe5b14806110595750600160085460ff16600281111561105757fe5b145b6110945760405162461bcd60e51b8152600401808060200182810382526023815260200180612a136023913960400191505060405180910390fd5b60005b6005548110156112035760006110ac82612452565b6002549091506001600160a01b031663f242432a306110c9611c50565b600254604080517efdd58e00000000000000000000000000000000000000000000000000000000815230600482015260248101889052905187926001600160a01b03169162fdd58e916044808301926020929190829003018186803b15801561113157600080fd5b505afa158015611145573d6000803e3d6000fd5b505050506040513d602081101561115b57600080fd5b5051604080517fffffffff0000000000000000000000000000000000000000000000000000000060e088901b1681526001600160a01b0395861660048201529390941660248401526044830191909152606482015260a06084820152600060a48201819052915160e4808301939282900301818387803b1580156111de57600080fd5b505af11580156111f2573d6000803e3d6000fd5b505060019093019250611097915050565b50600880547fffffffffffffffffffffffffffffffffffffffffffffffffffffffffffffff001660021790556040517f6e18b1b14477b5922c6efa82206ed0e3b73c2500e8d1528c9a6e17554ea1255490600090a1565b6000611264611c5f565b6112b5576040805162461bcd60e51b815260206004820181905260248201527f4f776e61626c653a2063616c6c6572206973206e6f7420746865206f776e6572604482015290519081900360640190fd5b600354604080517f70a0823100000000000000000000000000000000000000000000000000000000815230600482015290516001600160a01b03909216916370a0823191602480820192602092909190829003018186803b15801561131957600080fd5b505afa15801561132d573d6000803e3d6000fd5b505050506040513d602081101561134357600080fd5b50516003549091506001600160a01b031663a9059cbb611361611c50565b836040518363ffffffff1660e01b815260040180836001600160a01b03166001600160a01b0316815260200182815260200192505050602060405180830381600087803b1580156113b157600080fd5b505af11580156113c5573d6000803e3d6000fd5b505050506040513d60208110156113db57600080fd5b50516113e657600080fd5b6040805182815290517fce1d35d26fbf6b3cc5cd924de10b5a52b08e484129ea7d93abc48d739fffe5b99181900360200190a190565b611424611c5f565b611475576040805162461bcd60e51b815260206004820181905260248201527f4f776e61626c653a2063616c6c6572206973206e6f7420746865206f776e6572604482015290519081900360640190fd5b600080546040516001600160a01b03909116907f8be0079c531659141344cd1fd0a4f28419497f9722a3daafe3b4186f6b6457e0908390a3600080547fffffffffffffffffffffffff0000000000000000000000000000000000000000169055565b60006005548251146114e857600080fd5b6060600554604051908082528060200260200182016040528015611516578160200160208202803883390190505b50905060005b600554811015611612576002546000906001600160a01b031662fdd58e3061154385612452565b6040518363ffffffff1660e01b815260040180836001600160a01b03166001600160a01b031681526020018281526020019250505060206040518083038186803b15801561159057600080fd5b505afa1580156115a4573d6000803e3d6000fd5b505050506040513d60208110156115ba57600080fd5b5051905060008112156115cc57600080fd5b6115f2818684815181106115dc57fe5b602002602001015161247390919063ffffffff16565b8383815181106115fe57fe5b60209081029190910101525060010161151c565b50600073__$c60c5b2e171ea96099cc016a35548fd8cb$__63137bf798680100000000000000006005540260016040518363ffffffff1660e01b81526004018083815260200182600281111561166457fe5b60ff1681526020019250505060206040518083038186803b15801561168857600080fd5b505af415801561169c573d6000803e3d6000fd5b505050506040513d60208110156116b257600080fd5b505190506000806116c683858360016124a1565b50604080517f137bf7980000000000000000000000000000000000000000000000000000000081526004810184905260016024820152905192945090925073__$c60c5b2e171ea96099cc016a35548fd8cb$__9163137bf79891604480820192602092909190829003018186803b15801561174057600080fd5b505af4158015611754573d6000803e3d6000fd5b505050506040513d602081101561176a57600080fd5b5051945061177e858263ffffffff6120df16565b6007549095506117b690846117a2886801000000000000000063ffffffff6126ea16565b816117a957fe5b059063ffffffff6126ea16565b94506000851315806117d45750846801000000000000000080820502145b156117ec5768010000000000000000850594506117fe565b68010000000000000000850560010194505b50505050919050565b61180f611c5f565b611860576040805162461bcd60e51b815260206004820181905260248201527f4f776e61626c653a2063616c6c6572206973206e6f7420746865206f776e6572604482015290519081900360640190fd5b60008060085460ff16600281111561187457fe5b1461187e57600080fd5b600880547fffffffffffffffffffffffffffffffffffffffffffffffffffffffffffffff001660011790556040517fbb11914e7a395f00cf0920fe85f50088bd8d7681529fb0bd3c27ccb45a8bcd8f90600090a150565b6118dd611c5f565b61192e576040805162461bcd60e51b815260206004820181905260248201527f4f776e61626c653a2063616c6c6572206973206e6f7420746865206f776e6572604482015290519081900360640190fd5b60018060085460ff16600281111561194257fe5b1461194c57600080fd5b8161199e576040805162461bcd60e51b815260206004820152601f60248201527f66756e64696e67206368616e6765206d757374206265206e6f6e2d7a65726f00604482015290519081900360640190fd5b6000821315611b4857600354604080517f23b872dd0000000000000000000000000000000000000000000000000000000081523360048201523060248201526044810185905290516001600160a01b03909216916323b872dd916064808201926020929091908290030181600087803b158015611a1a57600080fd5b505af1158015611a2e573d6000803e3d6000fd5b505050506040513d6020811015611a4457600080fd5b50518015611aec5750600354600254604080517f095ea7b30000000000000000000000000000000000000000000000000000000081526001600160a01b039283166004820152602481018690529051919092169163095ea7b39160448083019260209291908290030181600087803b158015611abf57600080fd5b505af1158015611ad3573d6000803e3d6000fd5b505050506040513d6020811015611ae957600080fd5b50515b611af557600080fd5b611afe82612114565b600754611b11908363ffffffff61276516565b6007556040805183815290517fc55e9a33fb8b1de5318b5c7b96a32937e54006c82000b2c468ed1fb9f73f67999181900360200190a15b6000821215611c4c57611b5d826000036122db565b600754611b7490600084900363ffffffff6127c616565b6007556003546001600160a01b031663a9059cbb611b90611c50565b846000036040518363ffffffff1660e01b815260040180836001600160a01b03166001600160a01b0316815260200182815260200192505050602060405180830381600087803b158015611be357600080fd5b505af1158015611bf7573d6000803e3d6000fd5b505050506040513d6020811015611c0d57600080fd5b5051611c1857600080fd5b6040805183815290517fc55e9a33fb8b1de5318b5c7b96a32937e54006c82000b2c468ed1fb9f73f67999181900360200190a15b5050565b6000546001600160a01b031690565b600080546001600160a01b0316611c74612808565b6001600160a01b031614905090565b60085461010090046001600160a01b031681565b600654670de0b6b3a764000067ffffffffffffffff909116919091020490565b6003546001600160a01b031681565b60006060600554604051908082528060200260200182016040528015611cf6578160200160208202803883390190505b50905060005b600554811015611dd0576002546000906001600160a01b031662fdd58e30611d2385612452565b6040518363ffffffff1660e01b815260040180836001600160a01b03166001600160a01b031681526020018281526020019250505060206040518083038186803b158015611d7057600080fd5b505afa158015611d84573d6000803e3d6000fd5b505050506040513d6020811015611d9a57600080fd5b505160009081039150811315611daf57600080fd5b80838381518110611dbc57fe5b602090810291909101015250600101611cfc565b50600073__$c60c5b2e171ea96099cc016a35548fd8cb$__63137bf7986801000000000000000084510260026040518363ffffffff1660e01b815260040180838152602001826002811115611e2157fe5b60ff1681526020019250505060206040518083038186803b158015611e4557600080fd5b505af4158015611e59573d6000803e3d6000fd5b505050506040513d6020811015611e6f57600080fd5b50519050600080611e8383858860026124a1565b9250509150680100000000000000008281611e9a57fe5b048181611ea357fe5b049695505050505050565b60006001600160a01b038916301415611ee857507fbc197c8100000000000000000000000000000000000000000000000000000000611eec565b5060005b98975050505050505050565b60085460ff1681565b60075481565b60048181548110611f1457fe5b600091825260209091200154905081565b60055481565b60065467ffffffffffffffff1681565b611f43611c5f565b611f94576040805162461bcd60e51b815260206004820181905260248201527f4f776e61626c653a2063616c6c6572206973206e6f7420746865206f776e6572604482015290519081900360640190fd5b60018060085460ff166002811115611fa857fe5b14611fb257600080fd5b600680547fffffffffffffffffffffffffffffffffffffffffffffffff00000000000000001667ffffffffffffffff848116919091179182905560408051929091168252517f43acfe4f4a14c012959016586aee3b318a0a30e17bb8edae05a58d46c80b4199916020908290030190a15050565b60006001600160a01b03871630141561206057507ff23a6e6100000000000000000000000000000000000000000000000000000000612064565b5060005b9695505050505050565b612076611c5f565b6120c7576040805162461bcd60e51b815260206004820181905260248201527f4f776e61626c653a2063616c6c6572206973206e6f7420746865206f776e6572604482015290519081900360640190fd5b6120d08161280c565b50565b670de0b6b3a764000081565b818101600082128015906120f35750828112155b80612108575060008212801561210857508281125b61210e57fe5b92915050565b6004547fffffffffffffffffffffffffffffffffffffffffffffffffffffffffffffffff015b60008112611c4c5760606121646009838154811061215457fe5b90600052602060002001546128c4565b905060005b600a838154811061217657fe5b6000918252602090912001548110156122b257600254600354600a80546001600160a01b03938416936372ce427593169190879081106121b257fe5b9060005260206000200184815481106121c757fe5b9060005260206000200154600487815481106121df57fe5b906000526020600020015486896040518663ffffffff1660e01b815260040180866001600160a01b03166001600160a01b0316815260200185815260200184815260200180602001838152602001828103825284818151815260200191508051906020019060200280838360005b8381101561226557818101518382015260200161224d565b505050509050019650505050505050600060405180830381600087803b15801561228e57600080fd5b505af11580156122a2573d6000803e3d6000fd5b5050600190920191506121699050565b50507fffffffffffffffffffffffffffffffffffffffffffffffffffffffffffffffff0161213a565b60005b600454811015611c4c5760606122fa6009838154811061215457fe5b905060005b600a838154811061230c57fe5b60009182526020909120015481101561244857600254600354600a80546001600160a01b0393841693639e7212ad931691908790811061234857fe5b90600052602060002001848154811061235d57fe5b90600052602060002001546004878154811061237557fe5b906000526020600020015486896040518663ffffffff1660e01b815260040180866001600160a01b03166001600160a01b0316815260200185815260200184815260200180602001838152602001828103825284818151815260200191508051906020019060200280838360005b838110156123fb5781810151838201526020016123e3565b505050509050019650505050505050600060405180830381600087803b15801561242457600080fd5b505af1158015612438573d6000803e3d6000fd5b5050600190920191506122ff9050565b50506001016122de565b6000600b828154811061246157fe5b90600052602060002001549050919050565b808203600082128015906124875750828113155b806121085750600082128015612108575082811361210e57fe5b60008060008087121580156124b95750600060075412155b6124c257600080fd5b6040517fccc1381400000000000000000000000000000000000000000000000000000000815260206004820181815288516024840152885173__$c60c5b2e171ea96099cc016a35548fd8cb$__9363ccc13814938b9392839260440191808601910280838360005b8381101561254257818101518382015260200161252a565b505050509050019250505060206040518083038186803b15801561256557600080fd5b505af4158015612579573d6000803e3d6000fd5b505050506040513d602081101561258f57600080fd5b50516007549092506125a7838963ffffffff6126ea16565b816125ae57fe5b0591506125ca8268b8000000000000000063ffffffff61247316565b91506000805b87518160ff1610156126de5773__$c60c5b2e171ea96099cc016a35548fd8cb$__631d58012361263a866007546126268e8e8860ff168151811061261057fe5b60200260200101516126ea90919063ffffffff16565b8161262d57fe5b059063ffffffff61247316565b886040518363ffffffff1660e01b81526004018083815260200182600281111561266057fe5b60ff1681526020019250505060206040518083038186803b15801561268457600080fd5b505af4158015612698573d6000803e3d6000fd5b505050506040513d60208110156126ae57600080fd5b5051915060ff81811690881614156126c4578192505b6126d4858363ffffffff61276516565b94506001016125d0565b50509450945094915050565b6000826126f95750600061210e565b508181027fffffffffffffffffffffffffffffffffffffffffffffffffffffffffffffffff8314158061274c57507f80000000000000000000000000000000000000000000000000000000000000008214155b801561210857508183828161275d57fe5b051461210e57fe5b6000828201838110156127bf576040805162461bcd60e51b815260206004820152601b60248201527f536166654d6174683a206164646974696f6e206f766572666c6f770000000000604482015290519081900360640190fd5b9392505050565b60006127bf83836040518060400160405280601e81526020017f536166654d6174683a207375627472616374696f6e206f766572666c6f770000815250612928565b3390565b6001600160a01b0381166128515760405162461bcd60e51b81526004018080602001828103825260268152602001806129c06026913960400191505060405180910390fd5b600080546040516001600160a01b03808516939216917f8be0079c531659141344cd1fd0a4f28419497f9722a3daafe3b4186f6b6457e091a3600080547fffffffffffffffffffffffff0000000000000000000000000000000000000000166001600160a01b0392909216919091179055565b6060816040519080825280602002602001820160405280156128f0578160200160208202803883390190505b50905060005b8281101561292257806001901b82828151811061290f57fe5b60209081029190910101526001016128f6565b50919050565b600081848411156129b75760405162461bcd60e51b81526004018080602001828103825283818151815260200191508051906020019080838360005b8381101561297c578181015183820152602001612964565b50505050905090810190601f1680156129a95780820380516001836020036101000a031916815260200191505b509250505060405180910390fd5b50505090039056fe4f776e61626c653a206e6577206f776e657220697320746865207a65726f20616464726573736f6e6c792077686974656c6973746564207573657273206d61792063616c6c20746869732066756e6374696f6e54686973204d61726b65742068617320616c7265616479206265656e20636c6f736564a265627a7a7231582037b30ea15125de5cecc5ffa374ecd1790a1a381c3469c992162471868c28086364736f6c63430005100032",
  "linkReferences": {
    "@gnosis.pm/util-contracts/contracts/Fixed192x64Math.sol": {
      "Fixed192x64Math": [
        {
          "length": 20,
          "start": 5970
        },
        {
          "length": 20,
          "start": 6209
        },
        {
          "length": 20,
          "start": 7952
        },
        {
          "length": 20,
          "start": 9783
        },
        {
          "length": 20,
          "start": 10009
        }
      ]
    }
  },
  "deployedLinkReferences": {
    "@gnosis.pm/util-contracts/contracts/Fixed192x64Math.sol": {
      "Fixed192x64Math": [
        {
          "length": 20,
          "start": 5655
        },
        {
          "length": 20,
          "start": 5894
        },
        {
          "length": 20,
          "start": 7637
        },
        {
          "length": 20,
          "start": 9468
        },
        {
          "length": 20,
          "start": 9694
        }
      ]
    }
  }
}