{
  "_format": "hh-sol-artifact-1",
  "contractName": "ERC1155",
  "sourceName": "@gnosis.pm/conditional-tokens-contracts/contracts/ERC1155/ERC1155.sol",
  "abi": [
    {
      "inputs": [],
      "payable": false,
      "stateMutability": "nonpayable",
      "type": "constructor"
    },
    {
      "anonymous": false,
      "inputs": [
        {
          "indexed": true,
          "internalType": "address",
          "name": "owner",
          "type": "address"
        },
        {
          "indexed": true,
          "internalType": "address",
          "name": "operator",
          "type": "address"
        },
        {
          "indexed": false,
          "internalType": "bool",
          "name": "approved",
          "type": "bool"
        }
      ],
      "name": "ApprovalForAll",
      "type": "event"
    },
    {
      "anonymous": false,
      "inputs": [
        {
          "indexed": true,
          "internalType": "address",
          "name": "operator",
          "type": "address"
        },
        {
          "indexed": true,
          "internalType": "address",
          "name": "from",
          "type": "address"
        },
        {
          "indexed": true,
          "internalType": "address",
          "name": "to",
          "type": "address"
        },
        {
          "indexed": false,
          "internalType": "uint256[]",
          "name": "ids",
          "type": "uint256[]"
        },
        {
          "indexed": false,
          "internalType": "uint256[]",
          "name": "values",
          "type": "uint256[]"
        }
      ],
      "name": "TransferBatch",
      "type": "event"
    },
    {
      "anonymous": false,
      "inputs": [
        {
          "indexed": true,
          "internalType": "address",
          "name": "operator",
          "type": "address"
        },
        {
          "indexed": true,
          "internalType": "address",
          "name": "from",
          "type": "address"
        },
        {
          "indexed": true,
          "internalType": "address",
          "name": "to",
          "type": "address"
        },
        {
          "indexed": false,
          "internalType": "uint256",
          "name": "id",
          "type": "uint256"
        },
        {
          "indexed": false,
          "internalType": "uint256",
          "name": "value",
          "type": "uint256"
        }
      ],
      "name": "TransferSingle",
      "type": "event"
    },
    {
      "anonymous": false,
      "inputs": [
        {
          "indexed": false,
          "internalType": "string",
          "name": "value",
          "type": "string"
        },
        {
          "indexed": true,
          "internalType": "uint256",
          "name": "id",
          "type": "uint256"
        }
      ],
      "name": "URI",
      "type": "event"
    },
    {
      "constant": true,
      "inputs": [
        {
          "internalType": "address",
          "name": "owner",
          "type": "address"
        },
        {
          "internalType": "uint256",
          "name": "id",
          "type": "uint256"
        }
      ],
      "name": "balanceOf",
      "outputs": [
        {
          "internalType": "uint256",
          "name": "",
          "type": "uint256"
        }
      ],
      "payable": false,
      "stateMutability": "view",
      "type": "function"
    },
    {
      "constant": true,
      "inputs": [
        {
          "internalType": "address[]",
          "name": "owners",
          "type": "address[]"
        },
        {
          "internalType": "uint256[]",
          "name": "ids",
          "type": "uint256[]"
        }
      ],
      "name": "balanceOfBatch",
      "outputs": [
        {
          "internalType": "uint256[]",
          "name": "",
          "type": "uint256[]"
        }
      ],
      "payable": false,
      "stateMutability": "view",
      "type": "function"
    },
    {
      "constant": true,
      "inputs": [
        {
          "internalType": "address",
          "name": "owner",
          "type": "address"
        },
        {
          "internalType": "address",
          "name": "operator",
          "type": "address"
        }
      ],
      "name": "isApprovedForAll",
      "outputs": [
        {
          "internalType": "bool",
          "name": "",
          "type": "bool"
        }
      ],
      "payable": false,
      "stateMutability": "view",
      "type": "function"
    },
    {
      "constant": false,
      "inputs": [
        {
          "internalType": "address",
          "name": "from",
          "type": "address"
        },
        {
          "internalType": "address",
          "name": "to",
          "type": "address"
        },
        {
          "internalType": "uint256[]",
          "name": "ids",
          "type": "uint256[]"
        },
        {
          "internalType": "uint256[]",
          "name": "values",
          "type": "uint256[]"
        },
        {
          "internalType": "bytes",
          "name": "data",
          "type": "bytes"
        }
      ],
      "name": "safeBatchTransferFrom",
      "outputs": [],
      "payable": false,
      "stateMutability": "nonpayable",
      "type": "function"
    },
    {
      "constant": false,
      "inputs": [
        {
          "internalType": "address",
          "name": "from",
          "type": "address"
        },
        {
          "internalType": "address",
          "name": "to",
          "type": "address"
        },
        {
          "internalType": "uint256",
          "name": "id",
          "type": "uint256"
        },
        {
          "internalType": "uint256",
          "name": "value",
          "type": "uint256"
        },
        {
          "internalType": "bytes",
          "name": "data",
          "type": "bytes"
        }
      ],
      "name": "safeTransferFrom",
      "outputs": [],
      "payable": false,
      "stateMutability": "nonpayable",
      "type": "function"
    },
    {
      "constant": false,
      "inputs": [
        {
          "internalType": "address",
          "name": "operator",
          "type": "address"
        },
        {
          "internalType": "bool",
          "name": "approved",
          "type": "bool"
        }
      ],
      "name": "setApprovalForAll",
      "outputs": [],
      "payable": false,
      "stateMutability": "nonpayable",
      "type": "function"
    },
    {
      "constant": true,
      "inputs": [
        {
          "internalType": "bytes4",
          "name": "interfaceId",
          "type": "bytes4"
        }
      ],
      "name": "supportsInterface",
      "outputs": [
        {
          "internalType": "bool",
          "name": "",
          "type": "bool"
        }
      ],
      "payable": false,
      "stateMutability": "view",
      "type": "function"
    }
  ],
  "bytecode": "0x608060405234801561001057600080fd5b5061002a6301ffc9a760e01b6001600160e01b0361004816565b610043636cdb3d1360e11b6001600160e01b0361004816565b6100cc565b6001600160e01b031980821614156100a7576040805162461bcd60e51b815260206004820152601c60248201527f4552433136353a20696e76616c696420696e7465726661636520696400000000604482015290519081900360640190fd5b6001600160e01b0319166000908152602081905260409020805460ff19166001179055565b6115b7806100db6000396000f3fe608060405234801561001057600080fd5b506004361061007c5760003560e01c80634e1273f41161005b5780634e1273f41461025b578063a22cb465146103d2578063e985e9c51461040d578063f242432a146104485761007c565b8062fdd58e1461008157806301ffc9a7146100cc5780632eb2c2d61461011f575b600080fd5b6100ba6004803603604081101561009757600080fd5b5073ffffffffffffffffffffffffffffffffffffffff81351690602001356104ea565b60408051918252519081900360200190f35b61010b600480360360208110156100e257600080fd5b50357fffffffff0000000000000000000000000000000000000000000000000000000016610573565b604080519115158252519081900360200190f35b610259600480360360a081101561013557600080fd5b73ffffffffffffffffffffffffffffffffffffffff823581169260208101359091169181019060608101604082013564010000000081111561017657600080fd5b82018360208201111561018857600080fd5b803590602001918460208302840111640100000000831117156101aa57600080fd5b9193909290916020810190356401000000008111156101c857600080fd5b8201836020820111156101da57600080fd5b803590602001918460208302840111640100000000831117156101fc57600080fd5b91939092909160208101903564010000000081111561021a57600080fd5b82018360208201111561022c57600080fd5b8035906020019184600183028401116401000000008311171561024e57600080fd5b5090925090506105aa565b005b6103826004803603604081101561027157600080fd5b81019060208101813564010000000081111561028c57600080fd5b82018360208201111561029e57600080fd5b803590602001918460208302840111640100000000831117156102c057600080fd5b919080806020026020016040519081016040528093929190818152602001838360200280828437600092019190915250929594936020810193503591505064010000000081111561031057600080fd5b82018360208201111561032257600080fd5b8035906020019184602083028401116401000000008311171561034457600080fd5b919080806020026020016040519081016040528093929190818152602001838360200280828437600092019190915250929550610a1c945050505050565b60408051602080825283518183015283519192839290830191858101910280838360005b838110156103be5781810151838201526020016103a6565b505050509050019250505060405180910390f35b610259600480360360408110156103e857600080fd5b5073ffffffffffffffffffffffffffffffffffffffff81351690602001351515610bb7565b61010b6004803603604081101561042357600080fd5b5073ffffffffffffffffffffffffffffffffffffffff81358116916020013516610c50565b610259600480360360a081101561045e57600080fd5b73ffffffffffffffffffffffffffffffffffffffff823581169260208101359091169160408201359160608101359181019060a0810160808201356401000000008111156104ab57600080fd5b8201836020820111156104bd57600080fd5b803590602001918460018302840111640100000000831117156104df57600080fd5b509092509050610c8b565b600073ffffffffffffffffffffffffffffffffffffffff831661053e5760405162461bcd60e51b815260040180806020018281038252602b815260200180611401602b913960400191505060405180910390fd5b50600090815260016020908152604080832073ffffffffffffffffffffffffffffffffffffffff949094168352929052205490565b7fffffffff000000000000000000000000000000000000000000000000000000001660009081526020819052604090205460ff1690565b8483146105e85760405162461bcd60e51b815260040180806020018281038252602e8152602001806114ec602e913960400191505060405180910390fd5b73ffffffffffffffffffffffffffffffffffffffff871661063a5760405162461bcd60e51b815260040180806020018281038252602881526020018061142c6028913960400191505060405180910390fd5b73ffffffffffffffffffffffffffffffffffffffff8816331480610693575073ffffffffffffffffffffffffffffffffffffffff8816600090815260026020908152604080832033845290915290205460ff1615156001145b6106ce5760405162461bcd60e51b815260040180806020018281038252603881526020018061151a6038913960400191505060405180910390fd5b60005b858110156108595760008787838181106106e757fe5b90506020020135905060008686848181106106fe57fe5b90506020020135905061076a816001600085815260200190815260200160002060008e73ffffffffffffffffffffffffffffffffffffffff1673ffffffffffffffffffffffffffffffffffffffff16815260200190815260200160002054610eb590919063ffffffff16565b6001600084815260200190815260200160002060008d73ffffffffffffffffffffffffffffffffffffffff1673ffffffffffffffffffffffffffffffffffffffff168152602001908152602001600020819055506108216001600084815260200190815260200160002060008c73ffffffffffffffffffffffffffffffffffffffff1673ffffffffffffffffffffffffffffffffffffffff1681526020019081526020016000205482610efe90919063ffffffff16565b600092835260016020818152604080862073ffffffffffffffffffffffffffffffffffffffff8f1687529091529093205550016106d1565b508673ffffffffffffffffffffffffffffffffffffffff168873ffffffffffffffffffffffffffffffffffffffff163373ffffffffffffffffffffffffffffffffffffffff167f4a39dc06d4c0dbc64b70af90fd698a233a518aa5d07e595d983b8c0526c8f7fb898989896040518080602001806020018381038352878782818152602001925060200280828437600083820152601f017fffffffffffffffffffffffffffffffffffffffffffffffffffffffffffffffe0169091018481038352858152602090810191508690860280828437600083820152604051601f9091017fffffffffffffffffffffffffffffffffffffffffffffffffffffffffffffffe0169092018290039850909650505050505050a4610a1233898989898080602002602001604051908101604052809392919081815260200183836020028082843760009201919091525050604080516020808d0282810182019093528c82529093508c92508b91829185019084908082843760009201919091525050604080516020601f8c018190048102820181019092528a815292508a9150899081908401838280828437600092019190915250610f5892505050565b5050505050505050565b60608151835114610a5e5760405162461bcd60e51b815260040180806020018281038252602e8152602001806114be602e913960400191505060405180910390fd5b60608351604051908082528060200260200182016040528015610a8b578160200160208202803883390190505b50905060005b8451811015610baf57600073ffffffffffffffffffffffffffffffffffffffff16858281518110610abe57fe5b602002602001015173ffffffffffffffffffffffffffffffffffffffff161415610b195760405162461bcd60e51b815260040180806020018281038252603481526020018061148a6034913960400191505060405180910390fd5b60016000858381518110610b2957fe5b602002602001015181526020019081526020016000206000868381518110610b4d57fe5b602002602001015173ffffffffffffffffffffffffffffffffffffffff1673ffffffffffffffffffffffffffffffffffffffff16815260200190815260200160002054828281518110610b9c57fe5b6020908102919091010152600101610a91565b509392505050565b33600081815260026020908152604080832073ffffffffffffffffffffffffffffffffffffffff87168085529083529281902080547fffffffffffffffffffffffffffffffffffffffffffffffffffffffffffffff0016861515908117909155815190815290519293927f17307eab39ab6107e8899845ad3d59bd9653f200f220920489ca2b5937696c31929181900390910190a35050565b73ffffffffffffffffffffffffffffffffffffffff918216600090815260026020908152604080832093909416825291909152205460ff1690565b73ffffffffffffffffffffffffffffffffffffffff8516610cdd5760405162461bcd60e51b815260040180806020018281038252602881526020018061142c6028913960400191505060405180910390fd5b73ffffffffffffffffffffffffffffffffffffffff8616331480610d36575073ffffffffffffffffffffffffffffffffffffffff8616600090815260026020908152604080832033845290915290205460ff1615156001145b610d715760405162461bcd60e51b815260040180806020018281038252603881526020018061151a6038913960400191505060405180910390fd5b600084815260016020908152604080832073ffffffffffffffffffffffffffffffffffffffff8a168452909152902054610db1908463ffffffff610eb516565b600085815260016020908152604080832073ffffffffffffffffffffffffffffffffffffffff8b81168552925280832093909355871681522054610df6908490610efe565b600085815260016020908152604080832073ffffffffffffffffffffffffffffffffffffffff808b16808652918452938290209490945580518881529182018790528051928a169233927fc3d58168c5ae7397731d063d5bbf3d657854427343f4c083240f7aacaa2d0f6292908290030190a4610ead338787878787878080601f01602080910402602001604051908101604052809392919081815260200183838082843760009201919091525061118092505050565b505050505050565b6000610ef783836040518060400160405280601e81526020017f536166654d6174683a207375627472616374696f6e206f766572666c6f77000081525061132d565b9392505050565b600082820183811015610ef7576040805162461bcd60e51b815260206004820152601b60248201527f536166654d6174683a206164646974696f6e206f766572666c6f770000000000604482015290519081900360640190fd5b610f778473ffffffffffffffffffffffffffffffffffffffff166113c4565b15610ead576040517fbc197c810000000000000000000000000000000000000000000000000000000080825273ffffffffffffffffffffffffffffffffffffffff88811660048401908152888216602485015260a060448501908152875160a4860152875193949289169363bc197c81938c938c938b938b938b9392916064820191608481019160c4909101906020808a01910280838360005b83811015611029578181015183820152602001611011565b50505050905001848103835286818151815260200191508051906020019060200280838360005b83811015611068578181015183820152602001611050565b50505050905001848103825285818151815260200191508051906020019080838360005b838110156110a457818101518382015260200161108c565b50505050905090810190601f1680156110d15780820380516001836020036101000a031916815260200191505b5098505050505050505050602060405180830381600087803b1580156110f657600080fd5b505af115801561110a573d6000803e3d6000fd5b505050506040513d602081101561112057600080fd5b50517fffffffff000000000000000000000000000000000000000000000000000000001614610ead5760405162461bcd60e51b81526004018080602001828103825260368152602001806114546036913960400191505060405180910390fd5b61119f8473ffffffffffffffffffffffffffffffffffffffff166113c4565b15610ead576040517ff23a6e610000000000000000000000000000000000000000000000000000000080825273ffffffffffffffffffffffffffffffffffffffff888116600484019081528882166024850152604484018790526064840186905260a060848501908152855160a4860152855193949289169363f23a6e61938c938c938b938b938b93929160c490910190602085019080838360005b8381101561125357818101518382015260200161123b565b50505050905090810190601f1680156112805780820380516001836020036101000a031916815260200191505b509650505050505050602060405180830381600087803b1580156112a357600080fd5b505af11580156112b7573d6000803e3d6000fd5b505050506040513d60208110156112cd57600080fd5b50517fffffffff000000000000000000000000000000000000000000000000000000001614610ead5760405162461bcd60e51b81526004018080602001828103825260318152602001806115526031913960400191505060405180910390fd5b600081848411156113bc5760405162461bcd60e51b81526004018080602001828103825283818151815260200191508051906020019080838360005b83811015611381578181015183820152602001611369565b50505050905090810190601f1680156113ae5780820380516001836020036101000a031916815260200191505b509250505060405180910390fd5b505050900390565b6000813f7fc5d2460186f7233c927e7db2dcc703c0e500b653ca82273b7bfad8045d85a4708181148015906113f857508115155b94935050505056fe455243313135353a2062616c616e636520717565727920666f7220746865207a65726f2061646472657373455243313135353a207461726765742061646472657373206d757374206265206e6f6e2d7a65726f455243313135353a20676f7420756e6b6e6f776e2076616c75652066726f6d206f6e4552433131353542617463685265636569766564455243313135353a20736f6d65206164647265737320696e2062617463682062616c616e6365207175657279206973207a65726f455243313135353a206f776e65727320616e6420494473206d75737420686176652073616d65206c656e67746873455243313135353a2049447320616e642076616c756573206d75737420686176652073616d65206c656e67746873455243313135353a206e656564206f70657261746f7220617070726f76616c20666f7220337264207061727479207472616e73666572732e455243313135353a20676f7420756e6b6e6f776e2076616c75652066726f6d206f6e455243313135355265636569766564a265627a7a72315820ee199827e9e2db46eacf03bab97241a8cdc708043e39cb5330cdb4406f3a891664736f6c63430005100032",
  "linkReferences": {},
  "deployedLinkReferences": {}
}